S00E00005561727452782E73726563B0
S11300000C942A000C9447000C9447000C9447006D
S11300100C9447000C9447000C9447000C94470040
S11300200C9447000C9447000C9447000C94470030
S11300300C9447000C9447000C9447000C94470020
S11300400C9447000C9447000C9447000C94470010
S11300500C94470011241FBECFE5D8E0DEBFCDBF0E
S113006010E0A0E6B0E0EAECF0E002C005900D92EA
S1130070A036B107D9F710E0A0E6B0E001C01D92A8
S1130080A036B107E1F70E9450000C9463000C9471
S11300900000549A20B5266820BD89B990BD089502
S11300A086E087BB89E190E00E94490024E092E069
S11300B05F9BFECF8CB1813411F498BBF9CF8234AD
S10D00C0B9F728BBF5CFF894FFCF81
S9030000FC
