S00B00005350492E737265632D
S11300000C942A000C9447000C9447000C9447006D
S11300100C9447000C9447000C9447000C94470040
S11300200C9447000C9447000C9447000C94470030
S11300300C9447000C9447000C9447000C94470020
S11300400C9447000C9447000C9447000C94470010
S11300500C94470011241FBECFE5D8E0DEBFCDBF0E
S113006010E0A0E6B0E0EEEAF0E002C005900D92E8
S1130070A036B107D9F710E0A0E6B0E001C01D92A8
S1130080A036B107E1F70E9454000C9455000C947B
S1130090000087B3806A87BB8DB183658DB90895ED
S11100A08FB9779BFECF0895FFCFF894FFCF62
S9030000FC
