S014000043616C634156525F76312E302E7372656350
S11300000C942A000C9447000C9447000C9447006D
S11300100C9447000C9447000C9447000C94470040
S11300200C9447000C9447000C9447000C94470030
S11300300C9447000C9447000C9447000C94470020
S11300400C9447000C9447000C9447000C94470010
S11300500C94470011241FBECFE5D8E0DEBFCDBF0E
S113006010E0A0E6B0E0E2E3FAE002C005900D92F1
S1130070A23BB107D9F710E0A2EBB0E001C01D929A
S1130080A63BB107E1F70E9487000C9417050C9476
S1130090000082BBC198C09A83EC99E00197F1F704
S11300A000C00000C09818BA0895CF93DF93C9E444
S11300B0D0E088E390E0FE01099581E090E0FE0144
S11300C009958CE090E0FE01099580E890E0FE013E
S11300D00995DF91CF91089582BBC19AC09A83ECB0
S11300E099E00197F1F700C00000C09812BA089592
S11300F0CF93DF93EC018881882331F021960E940D
S11301006C0089918823D9F7DF91CF910895CF931B
S1130110DF93CDB7DEB768970FB6F894DEBF0FBE96
S1130120CDBF8FEF81BB83E087BB14BADE0111968C
S1130130EEE9F0E08AE001900D928150E1F7DE01F2
S11301401B96E8EAF0E08AE001900D928150E1F715
S11301508BE28D8B8DE28E8B8AE28F8B8FE2888F80
S11301600E94550080E690E00E94780080EC0E9496
S113017049008FE690E00E9478008FEE99E4A2E0B7
S113018081509040A040E1F700C0000081E00E944F
S113019049000F2EF5E0BF2EF02DAA249924FF2448
S11301A0FA94EE24EA94DD24DA94CC24CA940F2E33
S11301B0F2EB6F2EF0E07F2EF02D0F2EFFE74F2E87
S11301C0F0E05F2EF02D0F2EFFE82F2EF0E03F2EF3
S11301D0F02D01C0FC2C99E0D916B9F09F9B16C0F4
S11301E0D39480E80E944900E1E0F0E0EC0FFD1FA9
S11301F0ED0DF11D80810E946C00AFE4B3EC11970A
S1130200F1F700C000009D2C01C0DC2CB9E0EB1616
S113021019F1999B22C0E39480E80E94490084E18B
S11302200E94490084E10E94490084E10E9449003F
S113023084E10E944900E1E0F0E0EC0FFD1FEE0DC7
S1130240F11D80810E946C008FE493EC0197F1F71B
S113025000C00000AE2C01C0EC2C93E0F91609F4A8
S1130260B9CF9E9B1BC0F39480E80E94490084E1AF
S11302700E94490084E10E944900E5E1F0E0EC0FAE
S1130280FD1FEF0DF11D80810E946C00AFE4B3EC03
S11302901197F1F700C00000BF2C9DCF989B9BCF16
S11302A0E5E1F0E0EC0FFD1FEB0DF11D80818B32D9
S11302B061F08C3220F48A3209F0CFC06AC08D32EA
S11302C0B1F18F3209F0C9C096C0EBE0F0E0EC0F59
S11302D0FD1FE90DF11D8081EBE0F0E0EC0FFD1F47
S11302E0EA0DF11D008110E0080F111D80EC0E9441
S11302F0490000D000D000D0EDB7FEB73196ADB7BD
S1130300BEB712967C926E921197538242821583E5
S113031004830E9440028DB79EB706960FB6F894E8
S11303209EBF0FBE8DBFC3010E94780054CFEBE087
S1130330F0E0EC0FFD1FE90DF11D008110E0EBE092
S1130340F0E0EC0FFD1FEA0DF11D8081081B11097F
S113035080EC0E94490000D000D000D0EDB7FEB779
S11303603196ADB7BEB712967C926E9211975382B6
S11303704282158304830E9440028DB79EB706967D
S11303800FB6F8949EBF0FBE8DBFC3010E947800C4
S113039022CFEBE0F0E0EC0FFD1FE90DF11D8081B1
S11303A0EBE0F0E0EC0FFD1FEA0DF11D0081089F6A
S11303B08001112480EC0E94490000D000D000D0BC
S11303C0EDB7FEB73196ADB7BEB712967C926E927A
S11303D0119753824282158304830E9440028DB791
S11303E09EB706960FB6F8949EBF0FBE8DBFC3018D
S11303F00E947800F0CEEBE0F0E0EC0FFD1FE90D79
S1130400F11DABE0B0E0AC0FBD1FAA0DB11D8081A2
S11304106C910E943402082F80EC0E94490000D0A5
S113042000D000D0EDB7FEB73196ADB7BEB7129687
S11304307C926E92119753824282048315820E94A9
S113044040028DB79EB706960FB6F8949EBF0FBEB6
S11304508DBFC3010E947800BECE80EC0E9449008B
S1130460C1010E947800B7CE991B79E004C0991F9E
S1130470961708F0961B881F7A95C9F780950895FA
S1130480AEE0B0E0E6E4F2E00C94EE040D891E89DF
S113049086E08C831A8309838FEF9FE79E838D8385
S11304A0AE01475E5F4FCE0101966F89788D0E9441
S11304B06202EF81F885E00FF11F10822E96E4E0CE
S11304C00C940A05ADE0B0E0E8E6F2E00C94E00438
S11304D03C017D876C875A01FC0117821682838157
S11304E081FFC8C12E010894411C511CF301938162
S11304F0EC85FD8593FD859193FF8191FD87EC87C4
S1130500882309F4B3C1853241F493FD859193FFA7
S11305108191FD87EC87853229F490E0B3010E9434
S11305205604E4CFFF24EE2410E01032B0F48B32F2
S113053069F08C3228F4803251F0833271F40BC0AC
S11305408D3239F0803349F411602CC0126014608C
S113055029C0186027C0106125C017FD2EC0282FA0
S113056020532A3098F416FF08C08F2D880FF82ED8
S1130570FF0CFF0CF80EF20E15C08E2D880FE82E1E
S1130580EE0CEE0CE80EE20E10620CC08E3221F47A
S113059016FD6CC1106406C08C3611F4106802C0DC
S11305A0883659F4EC85FD8593FD859193FF8191FF
S11305B0FD87EC87882309F0B8CF982F95549330A2
S11305C018F09052933038F424E030E0A20EB31EB9
S11305D03FE339830FC0833631F0833781F08335AD
S11305E009F05AC022C0F5018081898322E030E0FD
S11305F0A20EB31E21E0C22ED12C420114C092E0FF
S1130600292E312C2A0C3B1CF5018080918016FF89
S113061003C06F2D70E002C06FEF7FEFC4010E9432
S11306204B046C0151011F7715C082E0282E312C38
S11306302A0C3B1CF5018080918016FF03C06F2DAE
S113064070E002C06FEF7FEFC4010E9440046C01B0
S11306501068510113FD1CC006C080E290E0B30194
S11306600E945604EA948E2D90E0C816D906A8F389
S11306700FC0F40117FD859117FF81914F0190E0A0
S1130680B3010E945604E110EA940894C108D10809
S1130690C114D10471F7E7C0843611F0893651F5DD
S11306A0F50117FF07C080819181A281B38124E005
S11306B030E008C080819181AA2797FDA095BA2FC8
S11306C022E030E0A20EB31E012F0F76B7FF08C060
S11306D0B095A095909581959F4FAF4FBF4F0068FF
S11306E0BC01CD01A2012AE030E00E948204D82E90
S11306F0D4183FC0853721F41F7E2AE030E020C0A3
S1130700197F8F36A9F0803720F4883509F0AEC000
S11307100BC0803721F0883709F0A8C001C01061F0
S113072014FF09C0146007C014FF08C0166006C097
S113073028E030E005C020E130E002C020E132E0F2
S1130740F50117FF07C0608171818281938144E0C4
S113075050E006C06081718180E090E042E050E0AA
S1130760A40EB51EA2010E948204D82ED418012F13
S11307700F7706FF09C00E7FDF1430F404FF06C0B4
S113078002FD04C00F7E02C01D2D01C01F2D802F4D
S113079090E004FF0CC0FE01ED0DF11D208120331B
S11307A011F4097E09C002FF06C01E5F05C08678E9
S11307B09070009709F01F5F802E992403FD12C0EA
S11307C000FF0DC0FD2C1E1550F4FE0CF11A1E2D59
S11307D006C080E290E0B3010E9456041F5F1E151C
S11307E0C0F304C01E1510F4E11A01C0EE2484FE07
S11307F00FC080E390E0B3010E94560482FE1FC044
S113080081FE03C088E590E010C088E790E00DC049
S1130810C40186789070009791F081FC02C080E258
S113082001C08BE207FD8DE290E0B3010E94560403
S113083006C080E390E0B3010E945604FA94DF14EA
S1130840C0F3DA94F201ED0DF11D808190E0B30163
S11308500E945604DD20A9F706C080E290E0B301AF
S11308600E945604EA94EE20C1F740CEF30186813B
S1130870978102C08FEF9FEF2D96E2E10C94FC0468
S1130880FC010590615070400110D8F78095909557
S11308908E0F9F1F0895FC0161507040019001105C
S11308A0D8F7809590958E0F9F1F08950F931F93EF
S11308B0CF93DF938C01EB018B8181FF1BC082FFFF
S11308C00DC02E813F818C819D812817390764F4E6
S11308D0E881F9810193F983E88306C0E885F98505
S11308E0802F0995009731F48E819F8101969F8313
S11308F08E8302C00FEF1FEFC801DF91CF911F91CC
S11309000F910895FA01AA27283051F1203181F17D
S1130910E8946F936E7F6E5F7F4F8F4F9F4FAF4F03
S1130920B1E03ED0B4E03CD0670F781F891F9A1F16
S1130930A11D680F791F8A1F911DA11D6A0F711DCA
S1130940811D911DA11D20D009F468943F912AE0D6
S1130950269F11243019305D3193DEF6CF010895BE
S1130960462F4770405D4193B3E00FD0C9F7F6CFEF
S1130970462F4F70405D4A3318F0495D31FD4052B7
S1130980419302D0A9F7EACFB4E0A695979587954D
S113099077956795BA95C9F700976105710508952C
S11309A09B01AC010A2E06945795479537952795D8
S11309B0BA95C9F7620F731F841F951FA01D089570
S11309C02F923F924F925F926F927F928F929F925B
S11309D0AF92BF92CF92DF92EF92FF920F931F9349
S11309E0CF93DF93CDB7DEB7CA1BDB0B0FB6F894FA
S11309F0DEBF0FBECDBF09942A88398848885F843A
S1130A006E847D848C849B84AA84B984C884DF80AA
S1130A10EE80FD800C811B81AA81B981CE0FD11D8E
S1130A200FB6F894DEBF0FBECDBFED010895F89464
S1050A30FFCFF2
S1130A32202043616C634156522076312E300020CF
S1130A422020204C414C2054656368202020003D26
S1130A522025642020202020202020202020006F18
S1130A6270657261746F72206572726F72003031D8
S1130A7232333435363738390001020304050607A8
S1050A8208095D
S9030000FC
