:100000000C942A000C9447000C9447000C94470071
:100010000C9447000C9447000C9447000C94470044
:100020000C9447000C9447000C9447000C94470034
:100030000C9447000C9447000C9447000C94470024
:100040000C9447000C9447000C9447000C94470014
:100050000C94470011241FBECFE5D8E0DEBFCDBF12
:1000600013E0A0E6B0E0EAE1F3E002C005900D92F3
:10007000A638B107D9F713E0A6E8B3E001C01D9296
:10008000A638B107E1F70E94EC000C948B010C94A8
:10009000000087B38E6B87BB08958DB183658DB9E2
:1000A000C49A0895C4988FB9779BFECFC49A0895D7
:1000B0000E944900C39883EC99E00197F1F700C0D2
:1000C0000000C39AC298C19A0E944D0081E20E942A
:1000D000520086E00E94520087E10E94520082E9AD
:1000E0000E94520080E20E9452008CE00E94520066
:1000F0000895CF93DF93D82FC62FC29880E20E9435
:1001000052008D2F80640E9452008C2F80680E94C4
:100110005200DF91CF910895AF92BF92CF92DF92BC
:10012000EF92FF920F931F93CF93DF938A010E9468
:100130007900C29AF8018081882371F168010894DE
:10014000C11CD11CAA24BB240F2EF6EAEF2EF1E02D
:10015000FF2EF02D1FC0F801808190E080979C0158
:10016000220F331F220F331F820F931F8C0F9D1FEF
:100170008E0D9F1DFC0180810E9452002196C5308A
:10018000D10549F786010894C11CD11CF801808172
:10019000882311F0E501DFCFC298DF91CF911F9145
:1001A0000F91FF90EF90DF90CF90BF90AF900895A8
:1001B000CF93DF9380E090E060E070E00E947900F0
:1001C000C29AC8EFD1E080E00E9452002197D9F78F
:1001D000C298DF91CF9108950E9458000E94D800E4
:1001E00083E090E06FE070E040E650E00E948C0019
:1001F00085E090E06FE070E04CE650E00E948C00FB
:10020000C8E7D0E081E090E06AE370E0AE010E94D0
:100210008C000BE710E081E090E063E370E0A80160
:100220000E948C0081E090E066E270E0AE010E94E6
:100230008C0081E090E06FE170E0A8010E948C00EA
:1002400081E090E062E170E0AE010E948C00AA249F
:10025000BB24CC24DD24C0E0D0E00EE211E0EE248B
:10026000FF2441C0CE01880F991F800F911FDC0130
:100270004D915C9181E090E06AE370E00E948C0017
:1002800087E79CE0A3E081509040A040E1F700C0E8
:100290000000CB33D10589F40894C11CD11CC601E0
:1002A000880F991F800F911FDC014D915C9181E0B7
:1002B00090E066E270E00E948C00BBE3CB16D104B4
:1002C00089F40894A11CB11CF501EE0FFF1FE00F8B
:1002D000F11F4081518181E090E062E170E00E9475
:1002E0008C0067012196CC33D1050CF4BBCFF8010B
:1002F0004081518181E090E06AE370E00E948C00CF
:1003000087E79CE0A3E081509040A040E1F700C067
:0A0310000000E701D2CFF894FFCF00
:10031A002053544F50574154434820002020202056
:10032A0020414C20202020003030003A003031009B
:10033A00303200303300303400303500303600308F
:10034A003700303800303900313000313100313275
:10035A000031330031340031350031360031370095
:10036A003138003139003230003231003232003255
:10037A003300323400323500323600323700323838
:10038A000032390033300033310033320033330066
:10039A003334003335003336003337003338003313
:1003AA00390034300034310034320034330034340C
:1003BA00003435003436003437003438003439001C
:1003CA0035300035310035320035330035340035EB
:1003DA0035003536003537003538003539007800B4
:1003EA007D0080008300860089008C008F009200C7
:1003FA00950098009B009E00A100A400A700AA00F7
:10040A00AD00B000B300B600B900BC00BF00C20026
:10041A00C500C800CB00CE00D100D400D700DA0056
:10042A00DD00E000E300E600E900EC00EF00F20086
:10043A00F500F800FB00FE000101040107010A01B2
:10044A000D0110011301160119011C011F012201DE
:10045A00250128012B01000000000000005F0000B8
:10046A000007000700147F147F14242A7F2A12230E
:10047A001308646236495522500005030000001C27
:10048A002241000041221C0014083E081408083EBC
:10049A0008080050300000080808080800606000DA
:1004AA000020100804023E5149453E00427F4000A8
:1004BA0042615149462141454B311814127F102798
:1004CA00454545393C4A49493001710905033649D0
:1004DA00494936064949291E003636000000563673
:1004EA0000000814224100141414141400412214A8
:1004FA00080201510906324979413E7E1111117EE5
:10050A007F494949363E414141227F4141221C7F70
:10051A00494949417F090909013E4149497A7F0808
:10052A0008087F00417F41002040413F017F0814B5
:10053A0022417F404040407F020C027F7F04081026
:10054A007F3E4141413E7F090909063E4151215EF4
:10055A007F09192946464949493101017F01013F6D
:10056A004040403F1F2040201F3F4038403F631417
:10057A0008146307087008076151494543007F4121
:10058A00410002040810200041417F0004020102D8
:10059A000440404040400001020400205454547872
:1005AA007F484444383844444420384444487F38D7
:1005BA0054545418087E0901020C5252523E7F08C4
:1005CA0004047800447D40002040443D007F102808
:1005DA00440000417F40007C041804787C0804042D
:1005EA007838444444387C14141408081414187CC9
:1005FA007C080404084854545420043F4440203CD6
:10060A004040207C1C2040201C3C4030403C442878
:10061A001028440C5050503C4464544C4400083652
:10062A00410000007F000000413608001008081051
:06063A00087846414678F5
:00000001FF
