S00C0000556172742E737265637C
S11300000C942A000C9447000C9447000C9447006D
S11300100C9447000C9447000C9447000C94470040
S11300200C9447000C9447000C9447000C94470030
S11300300C9447000C9447000C9447000C94470020
S11300400C9447000C9447000C9447000C94470010
S11300500C94470011241FBECFE5D8E0DEBFCDBF0E
S113006010E0A0E6B0E0ECE5F1E002C005900D92EE
S1130070A638B107D9F710E0A6E8B0E001C01D9298
S1130080A638B107E1F70E9454000C94AC000C941C
S11300900000539A20B5266820BD89B990BD089503
S11300A05D9BFECF8CB90895CF93DF93CDB7DEB7B8
S11300B0A6970FB6F894DEBF0FBECDBFDE01119632
S11300C0E0E6F0E080E101900D928150E1F7DE017D
S11300D05196E0E7F0E086E101900D928150E1F75E
S11300E089E190E00E94490000E010E00F2EF7E261
S11300F0EF2EFF24F02DEC0EFD1ECC24DD2415C0C4
S1130100F801EE0FFF1F81E090E08C0F9D1FE80FB8
S1130110F91F808191810E945000E3E2F4EF31974E
S1130120F1F700C000000F5F1F4F0830110540F3C6
S11301308E010F5E1F4FF801819191918F010E94F2
S1130140500083E294EF0197F1F700C000000E1510
S10F01501F0589F78601E9CFF894FFCF62
S113015C41004200480049004E0041005600200076
S113016C30003100320033003400350036003700E3
S109017C380039002000E8
S9030000FC
