S00E00004B65797061642E73726563B8
S11300000C942A000C9447000C9447000C9447006D
S11300100C9447000C9447000C9447000C94470040
S11300200C9447000C9447000C9447000C94470030
S11300300C9447000C9447000C9447000C94470020
S11300400C9447000C9447000C9447000C94470010
S11300500C94470011241FBECFE5D8E0DEBFCDBF0E
S113006010E0A0E6B0E0ECEFF2E002C005900D92E3
S1130070A638B107D9F710E0A6E8B0E001C01D9298
S1130080A638B107E1F70E9483000C947C010C941C
S1130090000082BBA998A89A87E893E10197F1F739
S11300A000C00000A89815BA0895CF93DF93C9E45F
S11300B0D0E088E390E0FE01099581E090E0FE0144
S11300C009958CE090E0FE010995DF91CF910895A8
S11300D082BBA99AA89A87E893E10197F1F700C037
S11300E00000A89812BA0895CF93DF93EC01888199
S11300F0882331F021960E94680089918823D9F7DA
S1130100DF91CF9108958FE08ABB83E084BB8FEFAA
S113011081BB0E94550080E690E00E9474008FE746
S11301209AE1A6E081509040A040E1F700C00000B1
S113013081E00E944900C7E6D0E00F2EFDE6CF2EF5
S1130140F0E0DF2EF02D0F2EFBE64F2EF0E05F2EB9
S1130150F02D0F2EF9E6AF2EF0E0BF2EF02D0F2E6E
S1130160F3E72F2EF0E03F2EF02D0F2EF1E78F2E28
S1130170F0E09F2EF02D0FE610E00F2EF9E76F2E22
S1130180F0E07F2EF02D0F2EF7E7EF2EF0E0FF2E9C
S1130190F02D81E08BBBA3ECB9E01197F1F700C01F
S11301A00000B09B07C080E80E944900CE010E9475
S11301B074001AC0B19B07C080E80E944900C501C1
S11301C00E94740011C0B29B07C080E80E944900DD
S11301D0C2010E94740008C0B39B06C080E80E945C
S11301E04900C6010E94740082E08BBB83EC99E055
S11301F00197F1F700C00000B09B07C080E80E949F
S11302004900C8010E9474001BC0B19B07C080E86C
S11302100E944900C4010E94740012C0B29B07C02E
S113022080E80E944900C1010E94740009C0B39B88
S113023007C080E80E94490085E790E00E947400AE
S113024084E08BBBA3ECB9E01197F1F700C0000088
S1130250B09B07C080E80E944900C7010E94740057
S11302601CC0B19B07C080E80E944900C3010E94E2
S1130270740013C0B29B08C080E80E9449008BE759
S113028090E00E94740009C0B39B07C080E80E94FC
S113029049008DE790E00E94740088E08BBB83ECFA
S11302A099E00197F1F700C00000B09B08C080E816
S11302B00E9449008FE790E00E9474006ACFB19BCE
S11302C008C080E80E94490081E890E00E94740020
S11302D060CFB29B08C080E80E94490083E890E0A8
S11302E00E94740056CFB39B54CF80E80E9449000B
S10F02F0C6010E9474004DCFF894FFCFAB
S11302FC4B6579706164003100340037002A003298
S113030C003500380030003300360039003D002B36
S109031C002D002F00007B
S9030000FC
