S0130000416C61726D5F636C6F636B2E73726563B9
S11300000C942A000C9447000C9447000C9447006D
S11300100C9447000C9447000C9447000C94470040
S11300200C9447000C9447000C9447000C94470030
S11300300C9447000C9447000C9447000C94470020
S11300400C9447000C9447000C9447000C94470010
S11300500C94470011241FBECFE5D8E0DEBFCDBF0E
S113006010E0A0E6B0E0ECE9F1E002C005900D92EA
S1130070A638B107D9F710E0A6E8B0E001C01D9298
S1130080A638B107E1F70E9483000C94CC000C94CD
S1130090000082BBC098C19A87E893E10197F1F709
S11300A000C00000C19818BA0895CF93DF93C9E443
S11300B0D0E088E390E0FE01099581E090E0FE0144
S11300C009958CE090E0FE010995DF91CF910895A8
S11300D082BBC09AC19A87E893E10197F1F700C007
S11300E00000C19812BA0895CF93DF93EC01888180
S11300F0882331F021960E94680089918823D9F7DA
S1130100DF91CF910895CF93DF93CDB7DEB7669794
S11301100FB6F894DEBF0FBECDBF83E087BB8FEF71
S113012081BB0E94550080E690E00E9474008FE736
S11301309AE1A6E081509040A040E1F700C00000A1
S113014081E00E944900DE011196EFE6F0E086E1CD
S113015001900D928150E1F700E010E0EE24FF24BD
S113016080E80E944900F801EE0FFF1FA1E0B0E013
S1130170AC0FBD1FEA0FFB1F80810E94680083E261
S113018094EF0197F1F700C000000F5F1F4F0B3091
S10F0190110534F38701E4CFF894FFCF8D
S113019C416C61726D20636C6F636B0031300030A5
S11301AC003100320033003400350036003700389B
S10901BC0039006C000094
S9030000FC
