:100000000C942A000C9447000C9447000C94470071
:100010000C9447000C9447000C9447000C94470044
:100020000C9447000C9447000C9447000C94470034
:100030000C9447000C9447000C9447000C94470024
:100040000C9447000C9447000C9447000C94470014
:100050000C94470011241FBECFE5D8E0DEBFCDBF12
:1000600010E0A0E6B0E0E2E3F1E002C005900D92FE
:10007000AC37B107D9F710E0ACE7B0E001C01D9292
:10008000AC37B107E1F70E9483000C9497000C9401
:10009000000082BBC198C09A87E893E10197F1F70D
:1000A00000C00000C09818BA0895CF93DF93C9E448
:1000B000D0E088E390E0FE01099581E090E0FE0148
:1000C00009958CE090E0FE010995DF91CF910895AC
:1000D00082BBC19AC09A87E893E10197F1F700C00B
:1000E0000000C09812BA0895CF93DF93EC01888185
:1000F000882331F021960E94680089918823D9F7DE
:10010000DF91CF9108958FEF81BB83E087BB0E9481
:10011000550080E690E00E94740080EC0E94490047
:100120008CE690E00E94740080E090E00895F894DE
:02013000FFCFFF
:10013200416268696E6176204C616C004C43442ECA
:0C01420068206275696C64204156520010
:00000001FF
