:100000000C9434000C9451000C9451000C94510049
:100010000C9451000C9451000C9451000C9451001C
:100020000C9451000C9451000C9451000C9451000C
:100030000C9451000C9451000C9451000C945100FC
:100040000C9451000C9451000C9451000C945100EC
:100050000C9451000C9451000C9451000C945100DC
:100060000C9451000C94510011241FBECFEFD8E026
:10007000DEBFCDBF11E0A0E0B1E0E4E9F2E002C0F4
:1000800005900D92A234B107D9F711E0A2E4B1E0D6
:1000900001C01D92A234B107E1F70E948D000C94BB
:1000A00048010C9400008BB92998289A87E893E1BD
:1000B0000197F1F700C00000289815B80895CF9374
:1000C000DF93C3E5D0E088E390E0FE01099581E08D
:1000D00090E0FE0109958CE090E0FE010995DF912A
:1000E000CF9108958BB9299A289A87E893E10197CF
:1000F000F1F700C0000028981BB80895CF93DF9354
:10010000EC018881882331F021960E947200899148
:100110008823D9F7DF91CF91089583E084B98FEFD9
:100120008AB98CE187B90E945F0080E091E00E946B
:100130007E0080EC0E94530089E091E00E947E00E6
:100140008FE39DE0A3E081509040A040E1F700C024
:10015000000081E00E94530080E80E94530088E183
:1001600091E00E947E0080EC0E94530084E291E0C6
:100170000E947E00CC24DD2400E010E0EE24FF2469
:10018000AA24BB240F2EF6E04F2E5524F02D8824F0
:10019000992483940F2EFBE06F2E7724F02D0F2EE1
:1001A000FFE22F2EF1E03F2EF02D01C0850102303D
:1001B0001105E1F3309B2CC091E0E916F104A9F49C
:1001C00080E80E945300E30184E10E9453002197DC
:1001D000D9F78BE291E00E947E00A4E0A8B9CC247C
:1001E000DD246894C1F87501E2CFE114F104F9F659
:1001F00080E80E945300E30184E10E9453002197AC
:10020000D9F7C1010E947E0018B864017401CFCFF4
:10021000319BCDCF01301105E1F480EC0E945300F9
:10022000E20184E10E9453002197D9F783E391E032
:100230000E947E00B1E0CB16D10411F418B806C0BC
:1002400082E0C816D10411F49CE098B902E010E0F5
:10025000AECF0115110509F0AACF80EC0E94530022
:10026000E20184E10E9453002197D9F78AE391E0EB
:100270000E947E00A1E0CA16D10411F418B806C08D
:10028000B2E0CB16D10411F484E188B984018FCF98
:04029000F894FFCF10
:1002940046756E6374696F6E0047656E657261744E
:1002A4006F722076312E300047656E657261746F0F
:1002B400723A2000576176653A20004F4E20004F75
:1002C4004646005371756172650053696E6520205E
:0202D400000028
:00000001FF
