S01B00004C43445F627574746F6E496E746572666163652E73726563AA
S11300000C942A000C9447000C9447000C9447006D
S11300100C9447000C9447000C9447000C94470040
S11300200C9447000C9447000C9447000C94470030
S11300300C9447000C9447000C9447000C94470020
S11300400C9447000C9447000C9447000C94470010
S11300500C94470011241FBECFE5D8E0DEBFCDBF0E
S113006010E0A0E6B0E0E8E4F1E002C005900D92F3
S1130070AA36B107D9F710E0AAE6B0E001C01D9294
S1130080AA36B107E1F70E9487000C94A2000C94F1
S1130090000082BBC198C09A87E893E10197F1F709
S11300A000C00000C09818BA0895CF93DF93C9E444
S11300B0D0E088E390E0FE01099581E090E0FE0144
S11300C009958CE090E0FE01099580E890E0FE013E
S11300D00995DF91CF91089582BBC19AC09A87E8B0
S11300E093E10197F1F700C00000C09812BA089597
S11300F0CF93DF93EC018881882331F021960E940D
S11301006C0089918823D9F7DF91CF9108958FEFFF
S113011081BB83E087BB1ABA0E94550000E610E059
S1130120C5E6D0E0C89B07C080E80E944900C8012A
S11301300E947800F7CF80E80E944900CE010E9417
S10B01407800F0CFF894FFCF22
S10D014848494748004C4F57200077
S9030000FC
