S0110000375F7365676D656E742E737265638A
S11300000C942A000C9447000C9447000C9447006D
S11300100C9447000C9447000C9447000C94470040
S11300200C9447000C9447000C9447000C94470030
S11300300C9447000C9447000C9447000C94470020
S11300400C9447000C9447000C9447000C94470010
S11300500C94470011241FBECFE5D8E0DEBFCDBF0E
S113006010E0A0E6B0E0E6EFF0E002C005900D92EB
S1130070A437B107D9F710E0A4E7B0E001C01D929E
S1130080A437B107E1F70E9449000C9479000C945D
S11300900000CF93DF93CDB7DEB764970FB6F89423
S11300A0DEBF0FBECDBF8FEF8ABBDE011196E0E647
S11300B0F0E084E101900D928150E1F780E090E05E
S11300C020E030E0FC01EE0FFF1F41E050E04C0F58
S11300D05D1FE40FF51F40814BBBE3E2F4EF319762
S11300E0F1F700C0000001968A3091055CF3C90164
S10900F0E9CFF894FFCFF4
S11300F606005B004F0066006D007D0007007F0070
S10701066F003F0043
S9030000FC
