S00D0000626C696E6B2E7372656307
S11300000C942A000C9447000C9447000C9447006D
S11300100C9447000C9447000C9447000C94470040
S11300200C9447000C9447000C9447000C94470030
S11300300C9447000C9447000C9447000C94470020
S11300400C9447000C9447000C9447000C94470010
S11300500C94470011241FBECFE5D8E0DEBFCDBF0E
S113006010E0A0E6B0E0EAECF0E002C005900D92EA
S1130070A036B107D9F710E0A0E6B0E001C01D92A8
S1130080A036B107E1F70E9449000C9463000C9478
S1130090000081E08ABB87BB84BB81BB8BBB88BB70
S11300A085BB82BBE3E2F4EF3197F1F700C00000B7
S11300B01BBA18BA15BA12BAE3E2F4EF3197F1F7A2
S10D00C000C00000EBCFF894FFCF5E
S9030000FC
